{
  "contractName": "VirtualStore",
  "abi": [
    {
      "inputs": [],
      "stateMutability": "nonpayable",
      "type": "constructor"
    },
    {
      "anonymous": false,
      "inputs": [
        {
          "indexed": false,
          "internalType": "uint256",
          "name": "id",
          "type": "uint256"
        },
        {
          "indexed": false,
          "internalType": "string",
          "name": "name",
          "type": "string"
        },
        {
          "indexed": false,
          "internalType": "string",
          "name": "description",
          "type": "string"
        },
        {
          "indexed": false,
          "internalType": "uint256",
          "name": "price",
          "type": "uint256"
        },
        {
          "indexed": false,
          "internalType": "uint256",
          "name": "quantityAvailable",
          "type": "uint256"
        }
      ],
      "name": "ProductAdded",
      "type": "event"
    },
    {
      "inputs": [
        {
          "internalType": "uint256",
          "name": "",
          "type": "uint256"
        }
      ],
      "name": "products",
      "outputs": [
        {
          "internalType": "uint256",
          "name": "id",
          "type": "uint256"
        },
        {
          "internalType": "string",
          "name": "name",
          "type": "string"
        },
        {
          "internalType": "string",
          "name": "description",
          "type": "string"
        },
        {
          "internalType": "uint256",
          "name": "price",
          "type": "uint256"
        },
        {
          "internalType": "uint256",
          "name": "quantityAvailable",
          "type": "uint256"
        }
      ],
      "stateMutability": "view",
      "type": "function",
      "constant": true
    },
    {
      "inputs": [
        {
          "internalType": "uint256",
          "name": "",
          "type": "uint256"
        }
      ],
      "name": "users",
      "outputs": [
        {
          "internalType": "uint256",
          "name": "id",
          "type": "uint256"
        },
        {
          "internalType": "string",
          "name": "name",
          "type": "string"
        },
        {
          "internalType": "string",
          "name": "email",
          "type": "string"
        },
        {
          "internalType": "address",
          "name": "ethereumAddress",
          "type": "address"
        }
      ],
      "stateMutability": "view",
      "type": "function",
      "constant": true
    },
    {
      "inputs": [
        {
          "internalType": "string",
          "name": "_name",
          "type": "string"
        },
        {
          "internalType": "string",
          "name": "_description",
          "type": "string"
        },
        {
          "internalType": "uint256",
          "name": "_price",
          "type": "uint256"
        },
        {
          "internalType": "uint256",
          "name": "_quantityAvailable",
          "type": "uint256"
        }
      ],
      "name": "addProduct",
      "outputs": [],
      "stateMutability": "nonpayable",
      "type": "function"
    },
    {
      "inputs": [
        {
          "internalType": "uint256",
          "name": "_index",
          "type": "uint256"
        }
      ],
      "name": "getProduct",
      "outputs": [
        {
          "internalType": "uint256",
          "name": "",
          "type": "uint256"
        },
        {
          "internalType": "string",
          "name": "",
          "type": "string"
        },
        {
          "internalType": "string",
          "name": "",
          "type": "string"
        },
        {
          "internalType": "uint256",
          "name": "",
          "type": "uint256"
        },
        {
          "internalType": "uint256",
          "name": "",
          "type": "uint256"
        }
      ],
      "stateMutability": "view",
      "type": "function",
      "constant": true
    },
    {
      "inputs": [],
      "name": "getAllProducts",
      "outputs": [
        {
          "components": [
            {
              "internalType": "uint256",
              "name": "id",
              "type": "uint256"
            },
            {
              "internalType": "string",
              "name": "name",
              "type": "string"
            },
            {
              "internalType": "string",
              "name": "description",
              "type": "string"
            },
            {
              "internalType": "uint256",
              "name": "price",
              "type": "uint256"
            },
            {
              "internalType": "uint256",
              "name": "quantityAvailable",
              "type": "uint256"
            }
          ],
          "internalType": "struct VirtualStore.Product[]",
          "name": "",
          "type": "tuple[]"
        }
      ],
      "stateMutability": "view",
      "type": "function",
      "constant": true
    },
    {
      "inputs": [
        {
          "internalType": "uint256",
          "name": "_index",
          "type": "uint256"
        },
        {
          "internalType": "string",
          "name": "_name",
          "type": "string"
        },
        {
          "internalType": "string",
          "name": "_description",
          "type": "string"
        },
        {
          "internalType": "uint256",
          "name": "_price",
          "type": "uint256"
        },
        {
          "internalType": "uint256",
          "name": "_quantityAvailable",
          "type": "uint256"
        }
      ],
      "name": "updateProduct",
      "outputs": [],
      "stateMutability": "nonpayable",
      "type": "function"
    },
    {
      "inputs": [
        {
          "internalType": "uint256",
          "name": "_index",
          "type": "uint256"
        }
      ],
      "name": "deleteProduct",
      "outputs": [],
      "stateMutability": "nonpayable",
      "type": "function"
    },
    {
      "inputs": [
        {
          "internalType": "uint256",
          "name": "_productId",
          "type": "uint256"
        },
        {
          "internalType": "uint256",
          "name": "_quantity",
          "type": "uint256"
        },
        {
          "internalType": "uint256",
          "name": "_price",
          "type": "uint256"
        },
        {
          "internalType": "address",
          "name": "_buyerAddress",
          "type": "address"
        }
      ],
      "name": "recordSale",
      "outputs": [],
      "stateMutability": "nonpayable",
      "type": "function"
    },
    {
      "inputs": [
        {
          "internalType": "uint256",
          "name": "_index",
          "type": "uint256"
        }
      ],
      "name": "getSale",
      "outputs": [
        {
          "internalType": "uint256",
          "name": "",
          "type": "uint256"
        },
        {
          "internalType": "uint256",
          "name": "",
          "type": "uint256"
        },
        {
          "internalType": "uint256",
          "name": "",
          "type": "uint256"
        },
        {
          "internalType": "uint256",
          "name": "",
          "type": "uint256"
        },
        {
          "internalType": "address",
          "name": "",
          "type": "address"
        }
      ],
      "stateMutability": "view",
      "type": "function",
      "constant": true
    },
    {
      "inputs": [],
      "name": "getAllSales",
      "outputs": [
        {
          "components": [
            {
              "internalType": "uint256",
              "name": "id",
              "type": "uint256"
            },
            {
              "internalType": "uint256",
              "name": "productId",
              "type": "uint256"
            },
            {
              "internalType": "uint256",
              "name": "quantity",
              "type": "uint256"
            },
            {
              "internalType": "uint256",
              "name": "price",
              "type": "uint256"
            },
            {
              "internalType": "address",
              "name": "buyerAddress",
              "type": "address"
            }
          ],
          "internalType": "struct VirtualStore.Sale[]",
          "name": "",
          "type": "tuple[]"
        }
      ],
      "stateMutability": "view",
      "type": "function",
      "constant": true
    },
    {
      "inputs": [
        {
          "internalType": "string",
          "name": "_name",
          "type": "string"
        },
        {
          "internalType": "string",
          "name": "_email",
          "type": "string"
        },
        {
          "internalType": "address",
          "name": "_ethereumAddress",
          "type": "address"
        }
      ],
      "name": "registerUser",
      "outputs": [],
      "stateMutability": "nonpayable",
      "type": "function"
    },
    {
      "inputs": [
        {
          "internalType": "uint256",
          "name": "_id",
          "type": "uint256"
        }
      ],
      "name": "getUser",
      "outputs": [
        {
          "internalType": "string",
          "name": "",
          "type": "string"
        },
        {
          "internalType": "string",
          "name": "",
          "type": "string"
        },
        {
          "internalType": "address",
          "name": "",
          "type": "address"
        }
      ],
      "stateMutability": "view",
      "type": "function",
      "constant": true
    },
    {
      "inputs": [
        {
          "internalType": "uint256",
          "name": "_id",
          "type": "uint256"
        },
        {
          "internalType": "string",
          "name": "_name",
          "type": "string"
        },
        {
          "internalType": "string",
          "name": "_email",
          "type": "string"
        },
        {
          "internalType": "address",
          "name": "_ethereumAddress",
          "type": "address"
        }
      ],
      "name": "updateUser",
      "outputs": [],
      "stateMutability": "nonpayable",
      "type": "function"
    },
    {
      "inputs": [
        {
          "internalType": "uint256",
          "name": "_id",
          "type": "uint256"
        }
      ],
      "name": "deleteUser",
      "outputs": [],
      "stateMutability": "nonpayable",
      "type": "function"
    }
  ],
  "bytecode": "0x608060405234801561001057600080fd5b506001600081905550600180819055506001600281905550611f22806100376000396000f3fe608060405234801561001057600080fd5b50600436106100ea5760003560e01c806388557b071161008c578063d8f6d59611610066578063d8f6d59614610268578063dae5b0231461029c578063ed90c7b7146102b8578063f94eb182146102d4576100ea565b806388557b07146101e6578063b0467deb14610202578063b9db15b414610234576100ea565b8063365b98b2116100c8578063365b98b21461014757806338f148451461017a578063685c1095146101965780637acc0b20146101b2576100ea565b806301cecd14146100ef57806302ee3a521461010b5780633339691714610129575b600080fd5b610109600480360381019061010491906114ec565b6102f0565b005b6101136103fc565b6040516101209190611a57565b60405180910390f35b61013161059d565b60405161013e9190611a79565b60405180910390f35b610161600480360381019061015c919061157f565b61067a565b6040516101719493929190611b20565b60405180910390f35b610194600480360381019061018f919061157f565b6107da565b005b6101b060048036038101906101ab91906115a8565b610842565b005b6101cc60048036038101906101c7919061157f565b6108d5565b6040516101dd959493929190611b73565b60405180910390f35b61020060048036038101906101fb919061146d565b610a2b565b005b61021c6004803603810190610217919061157f565b610b24565b60405161022b93929190611a9b565b60405180910390f35b61024e6004803603810190610249919061157f565b610ceb565b60405161025f959493929190611b73565b60405180910390f35b610282600480360381019061027d919061157f565b610f00565b604051610293959493929190611bd4565b60405180910390f35b6102b660048036038101906102b191906116e2565b611051565b005b6102d260048036038101906102cd919061157f565b61114c565b005b6102ee60048036038101906102e9919061163b565b611219565b005b600080600081548092919061030490611dd7565b91905055905060036040518060a001604052808381526020018781526020018681526020018581526020018481525090806001815401808255809150506001900390600052602060002090600502016000909190919091506000820151816000015560208201518160010190805190602001906103829291906112f8565b50604082015181600201908051906020019061039f9291906112f8565b50606082015181600301556080820151816004015550507f9602ea61e5616caa15fba534e20c5a5ab159fff73d12aa24b852febf42c2fe1f81868686866040516103ed959493929190611b73565b60405180910390a15050505050565b60606003805480602002602001604051908101604052809291908181526020016000905b8282101561059457838290600052602060002090600502016040518060a00160405290816000820154815260200160018201805461045d90611da5565b80601f016020809104026020016040519081016040528092919081815260200182805461048990611da5565b80156104d65780601f106104ab576101008083540402835291602001916104d6565b820191906000526020600020905b8154815290600101906020018083116104b957829003601f168201915b505050505081526020016002820180546104ef90611da5565b80601f016020809104026020016040519081016040528092919081815260200182805461051b90611da5565b80156105685780601f1061053d57610100808354040283529160200191610568565b820191906000526020600020905b81548152906001019060200180831161054b57829003601f168201915b505050505081526020016003820154815260200160048201548152505081526020019060010190610420565b50505050905090565b60606004805480602002602001604051908101604052809291908181526020016000905b8282101561067157838290600052602060002090600502016040518060a0016040529081600082015481526020016001820154815260200160028201548152602001600382015481526020016004820160009054906101000a900473ffffffffffffffffffffffffffffffffffffffff1673ffffffffffffffffffffffffffffffffffffffff1673ffffffffffffffffffffffffffffffffffffffff1681525050815260200190600101906105c1565b50505050905090565b60056020528060005260406000206000915090508060000154908060010180546106a390611da5565b80601f01602080910402602001604051908101604052809291908181526020018280546106cf90611da5565b801561071c5780601f106106f15761010080835404028352916020019161071c565b820191906000526020600020905b8154815290600101906020018083116106ff57829003601f168201915b50505050509080600201805461073190611da5565b80601f016020809104026020016040519081016040528092919081815260200182805461075d90611da5565b80156107aa5780601f1061077f576101008083540402835291602001916107aa565b820191906000526020600020905b81548152906001019060200180831161078d57829003601f168201915b5050505050908060030160009054906101000a900473ffffffffffffffffffffffffffffffffffffffff16905084565b60056000828152602001908152602001600020600080820160009055600182016000610806919061137e565b600282016000610816919061137e565b6003820160006101000a81549073ffffffffffffffffffffffffffffffffffffffff0219169055505050565b6000600560008681526020019081526020016000209050838160010190805190602001906108719291906112f8565b508281600201908051906020019061088a9291906112f8565b50818160030160006101000a81548173ffffffffffffffffffffffffffffffffffffffff021916908373ffffffffffffffffffffffffffffffffffffffff1602179055505050505050565b600381815481106108e557600080fd5b906000526020600020906005020160009150905080600001549080600101805461090e90611da5565b80601f016020809104026020016040519081016040528092919081815260200182805461093a90611da5565b80156109875780601f1061095c57610100808354040283529160200191610987565b820191906000526020600020905b81548152906001019060200180831161096a57829003601f168201915b50505050509080600201805461099c90611da5565b80601f01602080910402602001604051908101604052809291908181526020018280546109c890611da5565b8015610a155780601f106109ea57610100808354040283529160200191610a15565b820191906000526020600020905b8154815290600101906020018083116109f857829003601f168201915b5050505050908060030154908060040154905085565b600060026000815480929190610a4090611dd7565b91905055905060405180608001604052808281526020018581526020018481526020018373ffffffffffffffffffffffffffffffffffffffff1681525060056000838152602001908152602001600020600082015181600001556020820151816001019080519060200190610ab69291906112f8565b506040820151816002019080519060200190610ad39291906112f8565b5060608201518160030160006101000a81548173ffffffffffffffffffffffffffffffffffffffff021916908373ffffffffffffffffffffffffffffffffffffffff16021790555090505050505050565b6060806000806005600086815260200190815260200160002060405180608001604052908160008201548152602001600182018054610b6290611da5565b80601f0160208091040260200160405190810160405280929190818152602001828054610b8e90611da5565b8015610bdb5780601f10610bb057610100808354040283529160200191610bdb565b820191906000526020600020905b815481529060010190602001808311610bbe57829003601f168201915b50505050508152602001600282018054610bf490611da5565b80601f0160208091040260200160405190810160405280929190818152602001828054610c2090611da5565b8015610c6d5780601f10610c4257610100808354040283529160200191610c6d565b820191906000526020600020905b815481529060010190602001808311610c5057829003601f168201915b505050505081526020016003820160009054906101000a900473ffffffffffffffffffffffffffffffffffffffff1673ffffffffffffffffffffffffffffffffffffffff1673ffffffffffffffffffffffffffffffffffffffff16815250509050806020015181604001518260600151935093509350509193909250565b60006060806000806003805490508610610d3a576040517f08c379a0000000000000000000000000000000000000000000000000000000008152600401610d3190611b00565b60405180910390fd5b600060038781548110610d76577f4e487b7100000000000000000000000000000000000000000000000000000000600052603260045260246000fd5b90600052602060002090600502016040518060a001604052908160008201548152602001600182018054610da990611da5565b80601f0160208091040260200160405190810160405280929190818152602001828054610dd590611da5565b8015610e225780601f10610df757610100808354040283529160200191610e22565b820191906000526020600020905b815481529060010190602001808311610e0557829003601f168201915b50505050508152602001600282018054610e3b90611da5565b80601f0160208091040260200160405190810160405280929190818152602001828054610e6790611da5565b8015610eb45780601f10610e8957610100808354040283529160200191610eb4565b820191906000526020600020905b815481529060010190602001808311610e9757829003601f168201915b5050505050815260200160038201548152602001600482015481525050905080600001518160200151826040015183606001518460800151955095509550955095505091939590929450565b60008060008060006004805490508610610f4f576040517f08c379a0000000000000000000000000000000000000000000000000000000008152600401610f4690611ae0565b60405180910390fd5b600060048781548110610f8b577f4e487b7100000000000000000000000000000000000000000000000000000000600052603260045260246000fd5b90600052602060002090600502016040518060a0016040529081600082015481526020016001820154815260200160028201548152602001600382015481526020016004820160009054906101000a900473ffffffffffffffffffffffffffffffffffffffff1673ffffffffffffffffffffffffffffffffffffffff1673ffffffffffffffffffffffffffffffffffffffff1681525050905080600001518160200151826040015183606001518460800151955095509550955095505091939590929450565b60006001600081548092919061106690611dd7565b91905055905060046040518060a001604052808381526020018781526020018681526020018581526020018473ffffffffffffffffffffffffffffffffffffffff1681525090806001815401808255809150506001900390600052602060002090600502016000909190919091506000820151816000015560208201518160010155604082015181600201556060820151816003015560808201518160040160006101000a81548173ffffffffffffffffffffffffffffffffffffffff021916908373ffffffffffffffffffffffffffffffffffffffff16021790555050505050505050565b6003805490508110611193576040517f08c379a000000000000000000000000000000000000000000000000000000000815260040161118a90611b00565b60405180910390fd5b600381815481106111cd577f4e487b7100000000000000000000000000000000000000000000000000000000600052603260045260246000fd5b90600052602060002090600502016000808201600090556001820160006111f4919061137e565b600282016000611204919061137e565b60038201600090556004820160009055505050565b6003805490508510611260576040517f08c379a000000000000000000000000000000000000000000000000000000000815260040161125790611b00565b60405180910390fd5b60006003868154811061129c577f4e487b7100000000000000000000000000000000000000000000000000000000600052603260045260246000fd5b90600052602060002090600502019050848160010190805190602001906112c49291906112f8565b50838160020190805190602001906112dd9291906112f8565b50828160030181905550818160040181905550505050505050565b82805461130490611da5565b90600052602060002090601f016020900481019282611326576000855561136d565b82601f1061133f57805160ff191683800117855561136d565b8280016001018555821561136d579182015b8281111561136c578251825591602001919060010190611351565b5b50905061137a91906113be565b5090565b50805461138a90611da5565b6000825580601f1061139c57506113bb565b601f0160209004906000526020600020908101906113ba91906113be565b5b50565b5b808211156113d75760008160009055506001016113bf565b5090565b60006113ee6113e984611c58565b611c27565b90508281526020810184848401111561140657600080fd5b611411848285611d63565b509392505050565b60008135905061142881611ebe565b92915050565b600082601f83011261143f57600080fd5b813561144f8482602086016113db565b91505092915050565b60008135905061146781611ed5565b92915050565b60008060006060848603121561148257600080fd5b600084013567ffffffffffffffff81111561149c57600080fd5b6114a88682870161142e565b935050602084013567ffffffffffffffff8111156114c557600080fd5b6114d18682870161142e565b92505060406114e286828701611419565b9150509250925092565b6000806000806080858703121561150257600080fd5b600085013567ffffffffffffffff81111561151c57600080fd5b6115288782880161142e565b945050602085013567ffffffffffffffff81111561154557600080fd5b6115518782880161142e565b935050604061156287828801611458565b925050606061157387828801611458565b91505092959194509250565b60006020828403121561159157600080fd5b600061159f84828501611458565b91505092915050565b600080600080608085870312156115be57600080fd5b60006115cc87828801611458565b945050602085013567ffffffffffffffff8111156115e957600080fd5b6115f58782880161142e565b935050604085013567ffffffffffffffff81111561161257600080fd5b61161e8782880161142e565b925050606061162f87828801611419565b91505092959194509250565b600080600080600060a0868803121561165357600080fd5b600061166188828901611458565b955050602086013567ffffffffffffffff81111561167e57600080fd5b61168a8882890161142e565b945050604086013567ffffffffffffffff8111156116a757600080fd5b6116b38882890161142e565b93505060606116c488828901611458565b92505060806116d588828901611458565b9150509295509295909350565b600080600080608085870312156116f857600080fd5b600061170687828801611458565b945050602061171787828801611458565b935050604061172887828801611458565b925050606061173987828801611419565b91505092959194509250565b60006117518383611954565b905092915050565b600061176583836119d1565b60a08301905092915050565b61177a81611d27565b82525050565b61178981611d27565b82525050565b600061179a82611ca8565b6117a48185611ce3565b9350836020820285016117b685611c88565b8060005b858110156117f257848403895281516117d38582611745565b94506117de83611cc9565b925060208a019950506001810190506117ba565b50829750879550505050505092915050565b600061180f82611cb3565b6118198185611cf4565b935061182483611c98565b8060005b8381101561185557815161183c8882611759565b975061184783611cd6565b925050600181019050611828565b5085935050505092915050565b600061186d82611cbe565b6118778185611d05565b9350611887818560208601611d72565b61189081611ead565b840191505092915050565b60006118a682611cbe565b6118b08185611d16565b93506118c0818560208601611d72565b6118c981611ead565b840191505092915050565b60006118e1601883611d16565b91507f53616c6520696e646578206f7574206f6620626f756e647300000000000000006000830152602082019050919050565b6000611921601b83611d16565b91507f50726f6475637420696e646578206f7574206f6620626f756e647300000000006000830152602082019050919050565b600060a08301600083015161196c6000860182611a39565b50602083015184820360208601526119848282611862565b9150506040830151848203604086015261199e8282611862565b91505060608301516119b36060860182611a39565b5060808301516119c66080860182611a39565b508091505092915050565b60a0820160008201516119e76000850182611a39565b5060208201516119fa6020850182611a39565b506040820151611a0d6040850182611a39565b506060820151611a206060850182611a39565b506080820151611a336080850182611771565b50505050565b611a4281611d59565b82525050565b611a5181611d59565b82525050565b60006020820190508181036000830152611a71818461178f565b905092915050565b60006020820190508181036000830152611a938184611804565b905092915050565b60006060820190508181036000830152611ab5818661189b565b90508181036020830152611ac9818561189b565b9050611ad86040830184611780565b949350505050565b60006020820190508181036000830152611af9816118d4565b9050919050565b60006020820190508181036000830152611b1981611914565b9050919050565b6000608082019050611b356000830187611a48565b8181036020830152611b47818661189b565b90508181036040830152611b5b818561189b565b9050611b6a6060830184611780565b95945050505050565b600060a082019050611b886000830188611a48565b8181036020830152611b9a818761189b565b90508181036040830152611bae818661189b565b9050611bbd6060830185611a48565b611bca6080830184611a48565b9695505050505050565b600060a082019050611be96000830188611a48565b611bf66020830187611a48565b611c036040830186611a48565b611c106060830185611a48565b611c1d6080830184611780565b9695505050505050565b6000604051905081810181811067ffffffffffffffff82111715611c4e57611c4d611e7e565b5b8060405250919050565b600067ffffffffffffffff821115611c7357611c72611e7e565b5b601f19601f8301169050602081019050919050565b6000819050602082019050919050565b6000819050602082019050919050565b600081519050919050565b600081519050919050565b600081519050919050565b6000602082019050919050565b6000602082019050919050565b600082825260208201905092915050565b600082825260208201905092915050565b600082825260208201905092915050565b600082825260208201905092915050565b6000611d3282611d39565b9050919050565b600073ffffffffffffffffffffffffffffffffffffffff82169050919050565b6000819050919050565b82818337600083830152505050565b60005b83811015611d90578082015181840152602081019050611d75565b83811115611d9f576000848401525b50505050565b60006002820490506001821680611dbd57607f821691505b60208210811415611dd157611dd0611e4f565b5b50919050565b6000611de282611d59565b91507fffffffffffffffffffffffffffffffffffffffffffffffffffffffffffffffff821415611e1557611e14611e20565b5b600182019050919050565b7f4e487b7100000000000000000000000000000000000000000000000000000000600052601160045260246000fd5b7f4e487b7100000000000000000000000000000000000000000000000000000000600052602260045260246000fd5b7f4e487b7100000000000000000000000000000000000000000000000000000000600052604160045260246000fd5b6000601f19601f8301169050919050565b611ec781611d27565b8114611ed257600080fd5b50565b611ede81611d59565b8114611ee957600080fd5b5056fea26469706673582212200e27ede0aaaa0f6fbc215d7560736464be8b725e0f9cd75817afcc235797704964736f6c63430008000033",
  "immutableReferences": {},
  "source": "// SPDX-License-Identifier: MIT\r\npragma solidity ^0.8.0;\r\n\r\ncontract VirtualStore {\r\n    // Structure for Product\r\n    struct Product {\r\n        uint id;\r\n        string name;\r\n        string description;\r\n        uint price;\r\n        uint quantityAvailable;\r\n    }\r\n\r\n    // Structure for Sale\r\n    struct Sale {\r\n        uint id;\r\n        uint productId;\r\n        uint quantity;\r\n        uint price;\r\n        address buyerAddress;\r\n    }\r\n\r\n    // Structure for User\r\n    struct User {\r\n        uint id;\r\n        string name;\r\n        string email;\r\n        address ethereumAddress;\r\n    }\r\n\r\n    // State variables for keeping track of IDs\r\n    uint private nextProductId;\r\n    uint private nextSaleId;\r\n    uint private nextUserId;\r\n\r\n    // Array of products\r\n    Product[] public products;\r\n\r\n    // Array of sales (private)\r\n    Sale[] private sales;\r\n\r\n    // Mapping of users by ID\r\n    mapping(uint => User) public users;\r\n\r\n    // Event for adding product\r\n    event ProductAdded(uint id, string name, string description, uint price, uint quantityAvailable);\r\n\r\n    // Constructor\r\n    constructor() {\r\n        nextProductId = 1;\r\n        nextSaleId = 1;\r\n        nextUserId = 1;\r\n    }\r\n\r\n    // Methods for Product\r\n    function addProduct(string memory _name, string memory _description, uint _price, uint _quantityAvailable) public {\r\n        uint productId = nextProductId++;\r\n        products.push(Product(productId, _name, _description, _price, _quantityAvailable));\r\n        emit ProductAdded(productId, _name, _description, _price, _quantityAvailable);\r\n    }\r\n\r\n    function getProduct(uint _index) public view returns (uint, string memory, string memory, uint, uint) {\r\n        require(_index < products.length, \"Product index out of bounds\");\r\n        Product memory p = products[_index];\r\n        return (p.id, p.name, p.description, p.price, p.quantityAvailable);\r\n    }\r\n\r\n    function getAllProducts() public view returns (Product[] memory) {\r\n        return products;\r\n    }\r\n\r\n    function updateProduct(uint _index, string memory _name, string memory _description, uint _price, uint _quantityAvailable) public {\r\n        require(_index < products.length, \"Product index out of bounds\");\r\n        Product storage p = products[_index];\r\n        p.name = _name;\r\n        p.description = _description;\r\n        p.price = _price;\r\n        p.quantityAvailable = _quantityAvailable;\r\n    }\r\n\r\n    function deleteProduct(uint _index) public {\r\n        require(_index < products.length, \"Product index out of bounds\");\r\n        delete products[_index];\r\n    }\r\n\r\n    // Methods for Sale\r\n    function recordSale(uint _productId, uint _quantity, uint _price, address _buyerAddress) public {\r\n        uint saleId = nextSaleId++;\r\n        sales.push(Sale(saleId, _productId, _quantity, _price, _buyerAddress));\r\n    }\r\n\r\n    function getSale(uint _index) public view returns (uint, uint, uint, uint, address) {\r\n        require(_index < sales.length, \"Sale index out of bounds\");\r\n        Sale memory v = sales[_index];\r\n        return (v.id, v.productId, v.quantity, v.price, v.buyerAddress);\r\n    }\r\n\r\n    function getAllSales() public view returns (Sale[] memory) {\r\n        return sales;\r\n    }\r\n\r\n    // Methods for User\r\n    function registerUser(string memory _name, string memory _email, address _ethereumAddress) public {\r\n        uint userId = nextUserId++;\r\n        users[userId] = User(userId, _name, _email, _ethereumAddress);\r\n    }\r\n\r\n    function getUser(uint _id) public view returns (string memory, string memory, address) {\r\n        User memory u = users[_id];\r\n        return (u.name, u.email, u.ethereumAddress);\r\n    }\r\n\r\n    function updateUser(uint _id, string memory _name, string memory _email, address _ethereumAddress) public {\r\n        User storage u = users[_id];\r\n        u.name = _name;\r\n        u.email = _email;\r\n        u.ethereumAddress = _ethereumAddress;\r\n    }\r\n\r\n    function deleteUser(uint _id) public {\r\n        delete users[_id];\r\n    }\r\n}",
  "sourcePath": "C:\\Users\\michi\\Desktop\\Universidad-UESC\\Blockchain\\contracts\\VirtualStore.sol",
  "compiler": {
    "name": "solc",
    "version": "0.8.0+commit.c7dfd78e.Emscripten.clang"
  },
  "schemaVersion": "3.4.16",
  "updatedAt": "2024-07-01T19:57:09.539Z",
  "networkType": "ethereum",
  "devdoc": {
    "kind": "dev",
    "methods": {},
    "version": 1
  },
  "userdoc": {
    "kind": "user",
    "methods": {},
    "version": 1
  }
}