{
  "contractName": "VirtualStore",
  "abi": [
    {
      "inputs": [],
      "stateMutability": "nonpayable",
      "type": "constructor"
    },
    {
      "anonymous": false,
      "inputs": [
        {
          "indexed": false,
          "internalType": "uint256",
          "name": "id",
          "type": "uint256"
        },
        {
          "indexed": false,
          "internalType": "string",
          "name": "name",
          "type": "string"
        },
        {
          "indexed": false,
          "internalType": "string",
          "name": "category",
          "type": "string"
        },
        {
          "indexed": false,
          "internalType": "uint256",
          "name": "price",
          "type": "uint256"
        },
        {
          "indexed": false,
          "internalType": "uint256",
          "name": "quantityAvailable",
          "type": "uint256"
        },
        {
          "indexed": false,
          "internalType": "string",
          "name": "status",
          "type": "string"
        }
      ],
      "name": "ProductAdded",
      "type": "event"
    },
    {
      "inputs": [
        {
          "internalType": "uint256",
          "name": "",
          "type": "uint256"
        }
      ],
      "name": "products",
      "outputs": [
        {
          "internalType": "uint256",
          "name": "id",
          "type": "uint256"
        },
        {
          "internalType": "string",
          "name": "name",
          "type": "string"
        },
        {
          "internalType": "string",
          "name": "category",
          "type": "string"
        },
        {
          "internalType": "uint256",
          "name": "price",
          "type": "uint256"
        },
        {
          "internalType": "uint256",
          "name": "quantityAvailable",
          "type": "uint256"
        },
        {
          "internalType": "string",
          "name": "status",
          "type": "string"
        }
      ],
      "stateMutability": "view",
      "type": "function",
      "constant": true
    },
    {
      "inputs": [
        {
          "internalType": "uint256",
          "name": "",
          "type": "uint256"
        }
      ],
      "name": "users",
      "outputs": [
        {
          "internalType": "uint256",
          "name": "id",
          "type": "uint256"
        },
        {
          "internalType": "string",
          "name": "name",
          "type": "string"
        },
        {
          "internalType": "string",
          "name": "email",
          "type": "string"
        },
        {
          "internalType": "address",
          "name": "ethereumAddress",
          "type": "address"
        }
      ],
      "stateMutability": "view",
      "type": "function",
      "constant": true
    },
    {
      "inputs": [
        {
          "internalType": "string",
          "name": "_name",
          "type": "string"
        },
        {
          "internalType": "string",
          "name": "_category",
          "type": "string"
        },
        {
          "internalType": "uint256",
          "name": "_price",
          "type": "uint256"
        },
        {
          "internalType": "uint256",
          "name": "_quantityAvailable",
          "type": "uint256"
        },
        {
          "internalType": "string",
          "name": "_status",
          "type": "string"
        }
      ],
      "name": "addProduct",
      "outputs": [],
      "stateMutability": "nonpayable",
      "type": "function"
    },
    {
      "inputs": [
        {
          "internalType": "uint256",
          "name": "_index",
          "type": "uint256"
        }
      ],
      "name": "getProduct",
      "outputs": [
        {
          "internalType": "uint256",
          "name": "",
          "type": "uint256"
        },
        {
          "internalType": "string",
          "name": "",
          "type": "string"
        },
        {
          "internalType": "string",
          "name": "",
          "type": "string"
        },
        {
          "internalType": "uint256",
          "name": "",
          "type": "uint256"
        },
        {
          "internalType": "uint256",
          "name": "",
          "type": "uint256"
        },
        {
          "internalType": "string",
          "name": "",
          "type": "string"
        }
      ],
      "stateMutability": "view",
      "type": "function",
      "constant": true
    },
    {
      "inputs": [],
      "name": "getAllProducts",
      "outputs": [
        {
          "components": [
            {
              "internalType": "uint256",
              "name": "id",
              "type": "uint256"
            },
            {
              "internalType": "string",
              "name": "name",
              "type": "string"
            },
            {
              "internalType": "string",
              "name": "category",
              "type": "string"
            },
            {
              "internalType": "uint256",
              "name": "price",
              "type": "uint256"
            },
            {
              "internalType": "uint256",
              "name": "quantityAvailable",
              "type": "uint256"
            },
            {
              "internalType": "string",
              "name": "status",
              "type": "string"
            }
          ],
          "internalType": "struct VirtualStore.Product[]",
          "name": "",
          "type": "tuple[]"
        }
      ],
      "stateMutability": "view",
      "type": "function",
      "constant": true
    },
    {
      "inputs": [
        {
          "internalType": "uint256",
          "name": "_index",
          "type": "uint256"
        },
        {
          "internalType": "string",
          "name": "_name",
          "type": "string"
        },
        {
          "internalType": "string",
          "name": "_category",
          "type": "string"
        },
        {
          "internalType": "uint256",
          "name": "_price",
          "type": "uint256"
        },
        {
          "internalType": "uint256",
          "name": "_quantityAvailable",
          "type": "uint256"
        },
        {
          "internalType": "string",
          "name": "_status",
          "type": "string"
        }
      ],
      "name": "updateProduct",
      "outputs": [],
      "stateMutability": "nonpayable",
      "type": "function"
    },
    {
      "inputs": [
        {
          "internalType": "uint256",
          "name": "_index",
          "type": "uint256"
        }
      ],
      "name": "deleteProduct",
      "outputs": [],
      "stateMutability": "nonpayable",
      "type": "function"
    },
    {
      "inputs": [
        {
          "internalType": "uint256",
          "name": "_productId",
          "type": "uint256"
        },
        {
          "internalType": "uint256",
          "name": "_quantity",
          "type": "uint256"
        },
        {
          "internalType": "uint256",
          "name": "_price",
          "type": "uint256"
        },
        {
          "internalType": "address",
          "name": "_buyerAddress",
          "type": "address"
        }
      ],
      "name": "recordSale",
      "outputs": [],
      "stateMutability": "nonpayable",
      "type": "function"
    },
    {
      "inputs": [
        {
          "internalType": "uint256",
          "name": "_index",
          "type": "uint256"
        }
      ],
      "name": "getSale",
      "outputs": [
        {
          "internalType": "uint256",
          "name": "",
          "type": "uint256"
        },
        {
          "internalType": "uint256",
          "name": "",
          "type": "uint256"
        },
        {
          "internalType": "uint256",
          "name": "",
          "type": "uint256"
        },
        {
          "internalType": "uint256",
          "name": "",
          "type": "uint256"
        },
        {
          "internalType": "address",
          "name": "",
          "type": "address"
        }
      ],
      "stateMutability": "view",
      "type": "function",
      "constant": true
    },
    {
      "inputs": [],
      "name": "getAllSales",
      "outputs": [
        {
          "components": [
            {
              "internalType": "uint256",
              "name": "id",
              "type": "uint256"
            },
            {
              "internalType": "uint256",
              "name": "productId",
              "type": "uint256"
            },
            {
              "internalType": "uint256",
              "name": "quantity",
              "type": "uint256"
            },
            {
              "internalType": "uint256",
              "name": "price",
              "type": "uint256"
            },
            {
              "internalType": "address",
              "name": "buyerAddress",
              "type": "address"
            }
          ],
          "internalType": "struct VirtualStore.Sale[]",
          "name": "",
          "type": "tuple[]"
        }
      ],
      "stateMutability": "view",
      "type": "function",
      "constant": true
    },
    {
      "inputs": [
        {
          "internalType": "string",
          "name": "_name",
          "type": "string"
        },
        {
          "internalType": "string",
          "name": "_email",
          "type": "string"
        },
        {
          "internalType": "address",
          "name": "_ethereumAddress",
          "type": "address"
        }
      ],
      "name": "registerUser",
      "outputs": [],
      "stateMutability": "nonpayable",
      "type": "function"
    },
    {
      "inputs": [
        {
          "internalType": "uint256",
          "name": "_id",
          "type": "uint256"
        }
      ],
      "name": "getUser",
      "outputs": [
        {
          "internalType": "string",
          "name": "",
          "type": "string"
        },
        {
          "internalType": "string",
          "name": "",
          "type": "string"
        },
        {
          "internalType": "address",
          "name": "",
          "type": "address"
        }
      ],
      "stateMutability": "view",
      "type": "function",
      "constant": true
    },
    {
      "inputs": [
        {
          "internalType": "uint256",
          "name": "_id",
          "type": "uint256"
        },
        {
          "internalType": "string",
          "name": "_name",
          "type": "string"
        },
        {
          "internalType": "string",
          "name": "_email",
          "type": "string"
        },
        {
          "internalType": "address",
          "name": "_ethereumAddress",
          "type": "address"
        }
      ],
      "name": "updateUser",
      "outputs": [],
      "stateMutability": "nonpayable",
      "type": "function"
    },
    {
      "inputs": [
        {
          "internalType": "uint256",
          "name": "_id",
          "type": "uint256"
        }
      ],
      "name": "deleteUser",
      "outputs": [],
      "stateMutability": "nonpayable",
      "type": "function"
    }
  ],
  "bytecode": "0x608060405234801561001057600080fd5b5060016000819055506001808190555060016002819055506121b4806100376000396000f3fe608060405234801561001057600080fd5b50600436106100ea5760003560e01c80637acc0b201161008c578063b9db15b411610066578063b9db15b414610251578063d8f6d59614610286578063dae5b023146102ba578063ed90c7b7146102d6576100ea565b80637acc0b20146101ce57806388557b0714610203578063b0467deb1461021f576100ea565b806338f14845116100c857806338f148451461015e5780634da47d371461017a578063685c1095146101965780636daf0fbb146101b2576100ea565b806302ee3a52146100ef578063333969171461010d578063365b98b21461012b575b600080fd5b6100f76102f2565b6040516101049190611cd4565b60405180910390f35b610115610525565b6040516101229190611cf6565b60405180910390f35b610145600480360381019061014091906117b8565b610602565b6040516101559493929190611d9d565b60405180910390f35b610178600480360381019061017391906117b8565b610762565b005b610194600480360381019061018f9190611874565b6107ca565b005b6101b060048036038101906101ab91906117e1565b6108c3565b005b6101cc60048036038101906101c791906116f9565b610956565b005b6101e860048036038101906101e391906117b8565b610a88565b6040516101fa96959493929190611df0565b60405180910390f35b61021d6004803603810190610218919061167a565b610c6c565b005b610239600480360381019061023491906117b8565b610d65565b60405161024893929190611d18565b60405180910390f35b61026b600480360381019061026691906117b8565b610f2c565b60405161027d96959493929190611df0565b60405180910390f35b6102a0600480360381019061029b91906117b8565b6111dc565b6040516102b1959493929190611e66565b60405180910390f35b6102d460048036038101906102cf9190611945565b61132d565b005b6102f060048036038101906102eb91906117b8565b611428565b005b60606003805480602002602001604051908101604052809291908181526020016000905b8282101561051c57838290600052602060002090600602016040518060c00160405290816000820154815260200160018201805461035390612037565b80601f016020809104026020016040519081016040528092919081815260200182805461037f90612037565b80156103cc5780601f106103a1576101008083540402835291602001916103cc565b820191906000526020600020905b8154815290600101906020018083116103af57829003601f168201915b505050505081526020016002820180546103e590612037565b80601f016020809104026020016040519081016040528092919081815260200182805461041190612037565b801561045e5780601f106104335761010080835404028352916020019161045e565b820191906000526020600020905b81548152906001019060200180831161044157829003601f168201915b50505050508152602001600382015481526020016004820154815260200160058201805461048b90612037565b80601f01602080910402602001604051908101604052809291908181526020018280546104b790612037565b80156105045780601f106104d957610100808354040283529160200191610504565b820191906000526020600020905b8154815290600101906020018083116104e757829003601f168201915b50505050508152505081526020019060010190610316565b50505050905090565b60606004805480602002602001604051908101604052809291908181526020016000905b828210156105f957838290600052602060002090600502016040518060a0016040529081600082015481526020016001820154815260200160028201548152602001600382015481526020016004820160009054906101000a900473ffffffffffffffffffffffffffffffffffffffff1673ffffffffffffffffffffffffffffffffffffffff1673ffffffffffffffffffffffffffffffffffffffff168152505081526020019060010190610549565b50505050905090565b600560205280600052604060002060009150905080600001549080600101805461062b90612037565b80601f016020809104026020016040519081016040528092919081815260200182805461065790612037565b80156106a45780601f10610679576101008083540402835291602001916106a4565b820191906000526020600020905b81548152906001019060200180831161068757829003601f168201915b5050505050908060020180546106b990612037565b80601f01602080910402602001604051908101604052809291908181526020018280546106e590612037565b80156107325780601f1061070757610100808354040283529160200191610732565b820191906000526020600020905b81548152906001019060200180831161071557829003601f168201915b5050505050908060030160009054906101000a900473ffffffffffffffffffffffffffffffffffffffff16905084565b6005600082815260200190815260200160002060008082016000905560018201600061078e9190611505565b60028201600061079e9190611505565b6003820160006101000a81549073ffffffffffffffffffffffffffffffffffffffff0219169055505050565b6003805490508610610811576040517f08c379a000000000000000000000000000000000000000000000000000000000815260040161080890611d7d565b60405180910390fd5b60006003878154811061084d577f4e487b7100000000000000000000000000000000000000000000000000000000600052603260045260246000fd5b9060005260206000209060060201905085816001019080519060200190610875929190611545565b508481600201908051906020019061088e929190611545565b50838160030181905550828160040181905550818160050190805190602001906108b9929190611545565b5050505050505050565b6000600560008681526020019081526020016000209050838160010190805190602001906108f2929190611545565b508281600201908051906020019061090b929190611545565b50818160030160006101000a81548173ffffffffffffffffffffffffffffffffffffffff021916908373ffffffffffffffffffffffffffffffffffffffff1602179055505050505050565b600080600081548092919061096a90612069565b91905055905060036040518060c001604052808381526020018881526020018781526020018681526020018581526020018481525090806001815401808255809150506001900390600052602060002090600602016000909190919091506000820151816000015560208201518160010190805190602001906109ee929190611545565b506040820151816002019080519060200190610a0b929190611545565b50606082015181600301556080820151816004015560a0820151816005019080519060200190610a3c929190611545565b5050507f46fd1f2996faabab5e7edb8d22192b46f8d1595910ae63159489f3ce564339a7818787878787604051610a7896959493929190611df0565b60405180910390a1505050505050565b60038181548110610a9857600080fd5b9060005260206000209060060201600091509050806000015490806001018054610ac190612037565b80601f0160208091040260200160405190810160405280929190818152602001828054610aed90612037565b8015610b3a5780601f10610b0f57610100808354040283529160200191610b3a565b820191906000526020600020905b815481529060010190602001808311610b1d57829003601f168201915b505050505090806002018054610b4f90612037565b80601f0160208091040260200160405190810160405280929190818152602001828054610b7b90612037565b8015610bc85780601f10610b9d57610100808354040283529160200191610bc8565b820191906000526020600020905b815481529060010190602001808311610bab57829003601f168201915b505050505090806003015490806004015490806005018054610be990612037565b80601f0160208091040260200160405190810160405280929190818152602001828054610c1590612037565b8015610c625780601f10610c3757610100808354040283529160200191610c62565b820191906000526020600020905b815481529060010190602001808311610c4557829003601f168201915b5050505050905086565b600060026000815480929190610c8190612069565b91905055905060405180608001604052808281526020018581526020018481526020018373ffffffffffffffffffffffffffffffffffffffff1681525060056000838152602001908152602001600020600082015181600001556020820151816001019080519060200190610cf7929190611545565b506040820151816002019080519060200190610d14929190611545565b5060608201518160030160006101000a81548173ffffffffffffffffffffffffffffffffffffffff021916908373ffffffffffffffffffffffffffffffffffffffff16021790555090505050505050565b6060806000806005600086815260200190815260200160002060405180608001604052908160008201548152602001600182018054610da390612037565b80601f0160208091040260200160405190810160405280929190818152602001828054610dcf90612037565b8015610e1c5780601f10610df157610100808354040283529160200191610e1c565b820191906000526020600020905b815481529060010190602001808311610dff57829003601f168201915b50505050508152602001600282018054610e3590612037565b80601f0160208091040260200160405190810160405280929190818152602001828054610e6190612037565b8015610eae5780601f10610e8357610100808354040283529160200191610eae565b820191906000526020600020905b815481529060010190602001808311610e9157829003601f168201915b505050505081526020016003820160009054906101000a900473ffffffffffffffffffffffffffffffffffffffff1673ffffffffffffffffffffffffffffffffffffffff1673ffffffffffffffffffffffffffffffffffffffff16815250509050806020015181604001518260600151935093509350509193909250565b600060608060008060606003805490508710610f7d576040517f08c379a0000000000000000000000000000000000000000000000000000000008152600401610f7490611d7d565b60405180910390fd5b600060038881548110610fb9577f4e487b7100000000000000000000000000000000000000000000000000000000600052603260045260246000fd5b90600052602060002090600602016040518060c001604052908160008201548152602001600182018054610fec90612037565b80601f016020809104026020016040519081016040528092919081815260200182805461101890612037565b80156110655780601f1061103a57610100808354040283529160200191611065565b820191906000526020600020905b81548152906001019060200180831161104857829003601f168201915b5050505050815260200160028201805461107e90612037565b80601f01602080910402602001604051908101604052809291908181526020018280546110aa90612037565b80156110f75780601f106110cc576101008083540402835291602001916110f7565b820191906000526020600020905b8154815290600101906020018083116110da57829003601f168201915b50505050508152602001600382015481526020016004820154815260200160058201805461112490612037565b80601f016020809104026020016040519081016040528092919081815260200182805461115090612037565b801561119d5780601f106111725761010080835404028352916020019161119d565b820191906000526020600020905b81548152906001019060200180831161118057829003601f168201915b5050505050815250509050806000015181602001518260400151836060015184608001518560a001519650965096509650965096505091939550919395565b6000806000806000600480549050861061122b576040517f08c379a000000000000000000000000000000000000000000000000000000000815260040161122290611d5d565b60405180910390fd5b600060048781548110611267577f4e487b7100000000000000000000000000000000000000000000000000000000600052603260045260246000fd5b90600052602060002090600502016040518060a0016040529081600082015481526020016001820154815260200160028201548152602001600382015481526020016004820160009054906101000a900473ffffffffffffffffffffffffffffffffffffffff1673ffffffffffffffffffffffffffffffffffffffff1673ffffffffffffffffffffffffffffffffffffffff1681525050905080600001518160200151826040015183606001518460800151955095509550955095505091939590929450565b60006001600081548092919061134290612069565b91905055905060046040518060a001604052808381526020018781526020018681526020018581526020018473ffffffffffffffffffffffffffffffffffffffff1681525090806001815401808255809150506001900390600052602060002090600502016000909190919091506000820151816000015560208201518160010155604082015181600201556060820151816003015560808201518160040160006101000a81548173ffffffffffffffffffffffffffffffffffffffff021916908373ffffffffffffffffffffffffffffffffffffffff16021790555050505050505050565b600380549050811061146f576040517f08c379a000000000000000000000000000000000000000000000000000000000815260040161146690611d7d565b60405180910390fd5b600381815481106114a9577f4e487b7100000000000000000000000000000000000000000000000000000000600052603260045260246000fd5b90600052602060002090600602016000808201600090556001820160006114d09190611505565b6002820160006114e09190611505565b600382016000905560048201600090556005820160006115009190611505565b505050565b50805461151190612037565b6000825580601f106115235750611542565b601f01602090049060005260206000209081019061154191906115cb565b5b50565b82805461155190612037565b90600052602060002090601f01602090048101928261157357600085556115ba565b82601f1061158c57805160ff19168380011785556115ba565b828001600101855582156115ba579182015b828111156115b957825182559160200191906001019061159e565b5b5090506115c791906115cb565b5090565b5b808211156115e45760008160009055506001016115cc565b5090565b60006115fb6115f684611eea565b611eb9565b90508281526020810184848401111561161357600080fd5b61161e848285611ff5565b509392505050565b60008135905061163581612150565b92915050565b600082601f83011261164c57600080fd5b813561165c8482602086016115e8565b91505092915050565b60008135905061167481612167565b92915050565b60008060006060848603121561168f57600080fd5b600084013567ffffffffffffffff8111156116a957600080fd5b6116b58682870161163b565b935050602084013567ffffffffffffffff8111156116d257600080fd5b6116de8682870161163b565b92505060406116ef86828701611626565b9150509250925092565b600080600080600060a0868803121561171157600080fd5b600086013567ffffffffffffffff81111561172b57600080fd5b6117378882890161163b565b955050602086013567ffffffffffffffff81111561175457600080fd5b6117608882890161163b565b945050604061177188828901611665565b935050606061178288828901611665565b925050608086013567ffffffffffffffff81111561179f57600080fd5b6117ab8882890161163b565b9150509295509295909350565b6000602082840312156117ca57600080fd5b60006117d884828501611665565b91505092915050565b600080600080608085870312156117f757600080fd5b600061180587828801611665565b945050602085013567ffffffffffffffff81111561182257600080fd5b61182e8782880161163b565b935050604085013567ffffffffffffffff81111561184b57600080fd5b6118578782880161163b565b925050606061186887828801611626565b91505092959194509250565b60008060008060008060c0878903121561188d57600080fd5b600061189b89828a01611665565b965050602087013567ffffffffffffffff8111156118b857600080fd5b6118c489828a0161163b565b955050604087013567ffffffffffffffff8111156118e157600080fd5b6118ed89828a0161163b565b94505060606118fe89828a01611665565b935050608061190f89828a01611665565b92505060a087013567ffffffffffffffff81111561192c57600080fd5b61193889828a0161163b565b9150509295509295509295565b6000806000806080858703121561195b57600080fd5b600061196987828801611665565b945050602061197a87828801611665565b935050604061198b87828801611665565b925050606061199c87828801611626565b91505092959194509250565b60006119b48383611bb7565b905092915050565b60006119c88383611c4e565b60a08301905092915050565b6119dd81611fb9565b82525050565b6119ec81611fb9565b82525050565b60006119fd82611f3a565b611a078185611f75565b935083602082028501611a1985611f1a565b8060005b85811015611a555784840389528151611a3685826119a8565b9450611a4183611f5b565b925060208a01995050600181019050611a1d565b50829750879550505050505092915050565b6000611a7282611f45565b611a7c8185611f86565b9350611a8783611f2a565b8060005b83811015611ab8578151611a9f88826119bc565b9750611aaa83611f68565b925050600181019050611a8b565b5085935050505092915050565b6000611ad082611f50565b611ada8185611f97565b9350611aea818560208601612004565b611af38161213f565b840191505092915050565b6000611b0982611f50565b611b138185611fa8565b9350611b23818560208601612004565b611b2c8161213f565b840191505092915050565b6000611b44601883611fa8565b91507f53616c6520696e646578206f7574206f6620626f756e647300000000000000006000830152602082019050919050565b6000611b84601b83611fa8565b91507f50726f6475637420696e646578206f7574206f6620626f756e647300000000006000830152602082019050919050565b600060c083016000830151611bcf6000860182611cb6565b5060208301518482036020860152611be78282611ac5565b91505060408301518482036040860152611c018282611ac5565b9150506060830151611c166060860182611cb6565b506080830151611c296080860182611cb6565b5060a083015184820360a0860152611c418282611ac5565b9150508091505092915050565b60a082016000820151611c646000850182611cb6565b506020820151611c776020850182611cb6565b506040820151611c8a6040850182611cb6565b506060820151611c9d6060850182611cb6565b506080820151611cb060808501826119d4565b50505050565b611cbf81611feb565b82525050565b611cce81611feb565b82525050565b60006020820190508181036000830152611cee81846119f2565b905092915050565b60006020820190508181036000830152611d108184611a67565b905092915050565b60006060820190508181036000830152611d328186611afe565b90508181036020830152611d468185611afe565b9050611d5560408301846119e3565b949350505050565b60006020820190508181036000830152611d7681611b37565b9050919050565b60006020820190508181036000830152611d9681611b77565b9050919050565b6000608082019050611db26000830187611cc5565b8181036020830152611dc48186611afe565b90508181036040830152611dd88185611afe565b9050611de760608301846119e3565b95945050505050565b600060c082019050611e056000830189611cc5565b8181036020830152611e178188611afe565b90508181036040830152611e2b8187611afe565b9050611e3a6060830186611cc5565b611e476080830185611cc5565b81810360a0830152611e598184611afe565b9050979650505050505050565b600060a082019050611e7b6000830188611cc5565b611e886020830187611cc5565b611e956040830186611cc5565b611ea26060830185611cc5565b611eaf60808301846119e3565b9695505050505050565b6000604051905081810181811067ffffffffffffffff82111715611ee057611edf612110565b5b8060405250919050565b600067ffffffffffffffff821115611f0557611f04612110565b5b601f19601f8301169050602081019050919050565b6000819050602082019050919050565b6000819050602082019050919050565b600081519050919050565b600081519050919050565b600081519050919050565b6000602082019050919050565b6000602082019050919050565b600082825260208201905092915050565b600082825260208201905092915050565b600082825260208201905092915050565b600082825260208201905092915050565b6000611fc482611fcb565b9050919050565b600073ffffffffffffffffffffffffffffffffffffffff82169050919050565b6000819050919050565b82818337600083830152505050565b60005b83811015612022578082015181840152602081019050612007565b83811115612031576000848401525b50505050565b6000600282049050600182168061204f57607f821691505b60208210811415612063576120626120e1565b5b50919050565b600061207482611feb565b91507fffffffffffffffffffffffffffffffffffffffffffffffffffffffffffffffff8214156120a7576120a66120b2565b5b600182019050919050565b7f4e487b7100000000000000000000000000000000000000000000000000000000600052601160045260246000fd5b7f4e487b7100000000000000000000000000000000000000000000000000000000600052602260045260246000fd5b7f4e487b7100000000000000000000000000000000000000000000000000000000600052604160045260246000fd5b6000601f19601f8301169050919050565b61215981611fb9565b811461216457600080fd5b50565b61217081611feb565b811461217b57600080fd5b5056fea2646970667358221220392bb806c18a830564a2866b809e39b10d3336f99cfb910caa7f23cf2efe3b2e64736f6c63430008000033",
  "immutableReferences": {},
  "source": "// SPDX-License-Identifier: MIT\r\npragma solidity ^0.8.0;\r\n\r\ncontract VirtualStore {\r\n    // Structure for Product\r\n    struct Product {\r\n        uint id;\r\n        string name;\r\n        string category;\r\n        uint price;\r\n        uint quantityAvailable;\r\n        string status; // Nuevo campo\r\n    }\r\n\r\n    // Structure for Sale\r\n    struct Sale {\r\n        uint id;\r\n        uint productId;\r\n        uint quantity;\r\n        uint price;\r\n        address buyerAddress;\r\n    }\r\n\r\n    // Structure for User\r\n    struct User {\r\n        uint id;\r\n        string name;\r\n        string email;\r\n        address ethereumAddress;\r\n    }\r\n\r\n    // State variables for keeping track of IDs\r\n    uint private nextProductId;\r\n    uint private nextSaleId;\r\n    uint private nextUserId;\r\n\r\n    // Array of products\r\n    Product[] public products;\r\n\r\n    // Array of sales (private)\r\n    Sale[] private sales;\r\n\r\n    // Mapping of users by ID\r\n    mapping(uint => User) public users;\r\n\r\n    // Event for adding product\r\n    event ProductAdded(uint id, string name, string category, uint price, uint quantityAvailable, string status);\r\n\r\n    // Constructor\r\n    constructor() {\r\n        nextProductId = 1;\r\n        nextSaleId = 1;\r\n        nextUserId = 1;\r\n    }\r\n\r\n    // Methods for Product\r\n    function addProduct(string memory _name, string memory _category, uint _price, uint _quantityAvailable, string memory _status) public {\r\n        uint productId = nextProductId++;\r\n        products.push(Product(productId, _name, _category, _price, _quantityAvailable, _status));\r\n        emit ProductAdded(productId, _name, _category, _price, _quantityAvailable, _status);\r\n    }\r\n\r\n    function getProduct(uint _index) public view returns (uint, string memory, string memory, uint, uint, string memory) {\r\n        require(_index < products.length, \"Product index out of bounds\");\r\n        Product memory p = products[_index];\r\n        return (p.id, p.name, p.category, p.price, p.quantityAvailable, p.status);\r\n    }\r\n\r\n    function getAllProducts() public view returns (Product[] memory) {\r\n        return products;\r\n    }\r\n\r\n    function updateProduct(uint _index, string memory _name, string memory _category, uint _price, uint _quantityAvailable, string memory _status) public {\r\n        require(_index < products.length, \"Product index out of bounds\");\r\n        Product storage p = products[_index];\r\n        p.name = _name;\r\n        p.category = _category;\r\n        p.price = _price;\r\n        p.quantityAvailable = _quantityAvailable;\r\n        p.status = _status;\r\n    }\r\n\r\n    function deleteProduct(uint _index) public {\r\n        require(_index < products.length, \"Product index out of bounds\");\r\n        delete products[_index];\r\n    }\r\n\r\n    // Methods for Sale\r\n    function recordSale(uint _productId, uint _quantity, uint _price, address _buyerAddress) public {\r\n        uint saleId = nextSaleId++;\r\n        sales.push(Sale(saleId, _productId, _quantity, _price, _buyerAddress));\r\n    }\r\n\r\n    function getSale(uint _index) public view returns (uint, uint, uint, uint, address) {\r\n        require(_index < sales.length, \"Sale index out of bounds\");\r\n        Sale memory v = sales[_index];\r\n        return (v.id, v.productId, v.quantity, v.price, v.buyerAddress);\r\n    }\r\n\r\n    function getAllSales() public view returns (Sale[] memory) {\r\n        return sales;\r\n    }\r\n\r\n    // Methods for User\r\n    function registerUser(string memory _name, string memory _email, address _ethereumAddress) public {\r\n        uint userId = nextUserId++;\r\n        users[userId] = User(userId, _name, _email, _ethereumAddress);\r\n    }\r\n\r\n    function getUser(uint _id) public view returns (string memory, string memory, address) {\r\n        User memory u = users[_id];\r\n        return (u.name, u.email, u.ethereumAddress);\r\n    }\r\n\r\n    function updateUser(uint _id, string memory _name, string memory _email, address _ethereumAddress) public {\r\n        User storage u = users[_id];\r\n        u.name = _name;\r\n        u.email = _email;\r\n        u.ethereumAddress = _ethereumAddress;\r\n    }\r\n\r\n    function deleteUser(uint _id) public {\r\n        delete users[_id];\r\n    }\r\n}",
  "sourcePath": "C:\\Users\\michi\\Desktop\\Universidad-UESC\\Blockchain\\contracts\\VirtualStore.sol",
  "compiler": {
    "name": "solc",
    "version": "0.8.0+commit.c7dfd78e.Emscripten.clang"
  },
  "schemaVersion": "3.4.16",
  "updatedAt": "2024-07-01T21:07:41.016Z",
  "networkType": "ethereum",
  "devdoc": {
    "kind": "dev",
    "methods": {},
    "version": 1
  },
  "userdoc": {
    "kind": "user",
    "methods": {},
    "version": 1
  }
}